:020000040001F9
:10F00000D8E50120C1F30100C9F30100CBF30100F1
:10F01000CDF30100CFF30100D1F3010000000000A7
:10F02000000000000000000000000000D3F3010019
:10F03000D5F3010000000000D7F30100D9F301006F
:10F04000E1F50100DBF301008DF80100DBF30100C5
:10F05000DBF30100DBF30100DBF30100DBF3010074
:10F06000DBF30100DBF3010059F80100DBF30100E1
:10F07000DBF30100DBF30100DBF30100DBF3010054
:10F08000DBF30100F1F50100DBF30100DBF301002C
:10F0900075F60100DBF3010079F60100DBF30100F6
:10F0A000DBF30100DBF30100DBF30100DBF3010024
:10F0B000DBF30100DBF301000000000000000000B2
:10F0C000DBF30100DBF30100DBF30100DBF3010004
:10F0D000DBF30100DBF30100DBF3010099F8010031
:10F0E000DBF30100DBF30100DBF3010000000000B3
:10F0F00000000000DBF3010000000000DBF3010072
:10F1000000000000000000000000000000000000FF
:10F1100000000000000000000000000000000000EF
:10F1200000000000000000000000000000000000DF
:10F1300000000000000000000000000000000000CF
:10F1400000000000000000000000000000000000BF
:10F1500000000000000000000000000000000000AF
:10F16000000000000000000000000000000000009F
:10F17000000000000000000000000000000000008F
:10F18000000000000000000000000000000000007F
:10F19000000000000000000000000000000000006F
:10F1A000000000000000000000000000000000005F
:10F1B000000000000000000000000000000000004F
:10F1C000000000000000000000000000000000003F
:10F1D000000000000000000000000000000000002F
:10F1E000000000000000000000000000000000001F
:10F1F000000000000000000000000000000000000F
:10F20000DFF80CD000F064F900480047F5AF0200C9
:10F21000D8E5012030B450E8012F93B2C4892344CB
:10F220008489A34228BF1B1B0489A34202BFBFF3EA
:10F230002F8F002007E0C3EA020340E80134002CCE
:10F24000E9D14FF001000A6030BC704750E8012F4F
:10F25000C2EA024240E801210029F7D1704730B4E8
:10F2600050E8022F1FFAA2F3C488A34202BFBFF3E3
:10F270002F8F00200DE0C48923448489A34228BF36
:10F280001B1BC2EA034340E80234002CE8D14FF0D4
:10F2900001000A6030BC704750E8022FC2EA2242E7
:10F2A00040E802210029F7D17047034653E8022FB6
:10F2B000D988B2EB324F4FF0000017BF92B241EA4B
:10F2C000014142EA014104E05A68B2EB324F08BF03
:10F2D000012043E80212002AE8D1704730B4044606
:10F2E00054E8000F0D4644E80053002BF8D1156098
:10F2F00030BC704730B4044654E8000F40EA0105C2
:10F3000044E80053002BF7D1156030BC704730B48F
:10F31000044654E8000F00EA010544E80053002BBE
:10F32000F7D1156030BC704730B4044654E8000F84
:10F3300080EA010544E80053002BF7D1156030BC8A
:10F34000704730B4044654E8000F00EB010544E870
:10F350000053002BF7D1156030BC704730B4044621
:10F3600054E8000FA0EB010544E80053002BF7D14F
:10F37000156030BC704770B404464FF0000054E88C
:10F38000006F0D68AE4207BF44E80023012044E847
:10F3900000630E60002B1CBF0020F0E770BC7047BC
:10F3A00030B4044654E8000F88422CBF451A054685
:10F3B00044E80053002BF5D1156030BC70470000C5
:10F3C0000648804706480047FEE7FEE7FEE7FEE7FF
:10F3D000FEE7FEE7FEE7FEE7FEE7FEE77DF601005B
:10F3E00001F2010000487047E40C030040EA010309
:10F3F0009B0703D009E008C9121F08C0042AFAD2EB
:10F4000003E011F8013B00F8013B521EF9D27047AE
:10F41000D2B201E000F8012B491EFBD27047002256
:10F42000F6E710B513460A4604461946FFF7F0FF03
:10F43000204610BD421C10F8011B0029FBD1801A88
:10F44000704730B504460020034600E05B1C934241
:10F4500003D2E05CCD5C401BF8D030BD034611F810
:10F46000012B00F8012B002AF9D1184670472DE92D
:10F47000F05F0546002092469B4688460646814638
:10F4800040241BE0284641464746224600F041F80A
:10F4900053465A46C01A914110D311461846224687
:10F4A00000F028F82D1A67EB01084F46224601208C
:10F4B000002100F01FF817EB00094E41201EA4F1B7
:10F4C0000104DFDC484631462A464346BDE8F09F4A
:10F4D000064C074D06E0E06840F0010394E80700A1
:10F4E00098471034AC42F6D3FFF78EFE7C1203002F
:10F4F0009C120300202A04DB203A00FA02F10020CB
:10F5000070479140C2F1200320FA03F31943904061
:10F510007047202A04DB203A21FA02F000217047CC
:10F5200021FA02F3D040C2F120029140084319466B
:10F53000704770B58C1810F8015B15F0070301D106
:10F5400010F8013B2A1106D110F8012B03E010F846
:10F55000016B01F8016B5B1EF9D12B0705D4002369
:10F56000521E0DD401F8013BFAE710F8013BCB1A0B
:10F57000921C03E013F8015B01F8015B521EF9D500
:10F58000A142D8D3002070BD00F01F02012191409C
:10F590004009800000F1E020C0F88012704700F0C0
:10F5A0001F02012191404009800000F1E020C0F8D5
:10F5B0008012704700F01F02012191404009800035
:10F5C00000F1E020C0F80011704700F01F02012197
:10F5D00091404009800000F1E020C0F8001270471F
:10F5E00010B50DF0E7FFBDE810400DF069BF000059
:10F5F00007480021C0F84011C0F84411C0F8481174
:10F60000C0F84C11C0F80011C0F8041110F0CAB8CD
:10F610000010014000F0F4B970B50E46144900EB3B
:10F62000400001EBC0051446E86A183520B10128F6
:10F630000FD0022805D113E0284600F015FAA042A9
:10F6400001D2002411E022463146284600F059FA42
:10F650000BE0284600F008FAA042F4D20446F2E794
:10F660003146284600F020FA0446204670BD0000CE
:10F670008CC1012010F008B80DF070BD30B54FF00E
:10F68000805000228300D0F83011C3F80C21C3F859
:10F690001021624B1A60624B1B68624C2360604B06
:10F6A0001B1D1B68241D23605D4B08331B68241D34
:10F6B00023605B4B0C331B68241D2360584B1033B5
:10F6C0001B68241D2360564B14331B68241D2360C4
:10F6D000534B18331B68534C20342360504B1C335E
:10F6E0001B68241D23604E4B20331B68241D2360A0
:10F6F0004B4B24331B68241D2360494B28331B6864
:10F70000241D2360464B2C331B68241D2360444B6F
:10F7100030331B68434C40342360414B34331B6807
:10F72000241D23603E4B38331B68241D23603C4B53
:10F730003C331B68241D2360394B40331B68241D58
:10F7400023600124082902D1D0F8343113B10829EB
:10F7500004D006E0354B3449196005E0D0F8343167
:10F7600013B1082904D006E0314BFB21196005E0F4
:10F77000D0F8343113B1082908D00EE090F858328F
:10F780002C48016863F30301016002E0D0F83431D2
:10F790001BB929494FF40070086028480168C9075F
:10F7A00002D06FF0010101602548016841F4700149
:10F7B0000160BFF34F8FBFF36F8F4FF01021D1F86F
:10F7C0000002002803DBD1F80402002822DA1D4BD6
:10F7D0001C601D480468002CFCD01224C1F80042B3
:10F7E0000568002DFCD0C1F8044201680029FCD056
:10F7F0001A6001680029FCD0BFF34F8F10487C3895
:10F800000168124A01F4E06111430160BFF34F8FB8
:10F8100000BFFDE70F490E48086030BD38050040C5
:10F820000404001020C50040488103008C560040AD
:10F8300018F50040E40E00404096024000040040ED
:10F8400088ED00E004E5014000E401400400FA0511
:10F850000090D003AC9E01200A48D0F84411012941
:10F860000ED1D0F8041389030AD50021C0F8441141
:10F870000121C1600448C2790AB10AF0EDBF0172EA
:10F880007047000000A00040349E0120014800683D
:10F8900000470000A89C01202DE9F05F5448D0F8F3
:10F8A000045300242E464FF0010913E096FAA6F007
:10F8B000B0FA80F7B80000F5807080460DF082FD48
:10F8C00028B140460DF086FD09FA07F0044309FA15
:10F8D00007F08643002EE9D10CF068FA002869D0C1
:10F8E000444AD078F0BBA00264D5434940F2A978DD
:10F8F000C1F80080081D036813F0FF0C02D00368F4
:10F9000003EA0C0C40F2AA7AC1F800A0036813F0D5
:10F91000FF0301D00668334040F2AB7BC1F800B072
:10F92000066816F0FF0601D007683E4040F2AC774B
:10F930000F60076817EA0C0709D0D2F810C04CEA2C
:10F94000070CC2F810C0C1F800800760076840F2D9
:10F95000AD770F6007681F4009D0136943EA07437A
:10F96000136100E026E0C1F800A00760036840F2E0
:10F97000AE730B60036833400BD0DE0701D044F454
:10F980000004DE0601D544F00104C1F800B00360B4
:10F990000068106930F0011102D005F080710C434D
:10F9A00010F0011F06D0690504D520F0011044F4C1
:10F9B00080641061C4F3C05624F400044F46DFF89D
:10F9C0003C8009E094FAA4F0B0FA80F558F82500DC
:10F9D000804707FA05F08443002CF3D110F096FB22
:10F9E000002E03D0BDE8F05F0AF0B4BBBDE8F09F85
:10F9F00000700240789C012000780240B8050300A6
:10FA000010B5124C02202061606111A0A06104F1C8
:10FA10007800E0614FF4007020620020A062606214
:10FA20000BA1A164E06204F51E71E1641021A065E0
:10FA3000C4E91410E06509A1E01DFFF70FFD08A15E
:10FA40002046FFF70BFD2020A07110BD8CC10120C6
:10FA50005465726D696E616C000000005254540070
:10FA600053454747455200000269C1688A4203D89E
:10FA70008068401A104400E0501A401E7047000091
:10FA8000C11700EBD161074B4A1153F8222021F036
:10FA90001F01411A01208840024201D00120704715
:10FAA0000020704700E100E02DE9F047C4681746E8
:10FAB000894606464FF000083069A04201D9051B6F
:10FAC00002E0B168201A0D1AB0686D1E001BA84232
:10FAD00000D80546BD4200D33D4670682A46204402
:10FAE0004946FFF783FCB0687F1B2C44A844A94417
:10FAF000A04200D10024F460002FDDD14046BDE8D3
:10FB0000F0872DE9F04104468846D4E90207C51B79
:10FB1000E168606816460844B54206D94146FFF7D9
:10FB200065FCB819E060BDE8F0812A464146FFF760
:10FB30005DFC761B08EB050132466068FFF756FC5A
:10FB4000E660F0E70FB41CB50246002007AC0029C0
:10FB50000BD0491ECDE90021054B6A462146069887
:10FB600000F038F8009A002111701CBC5DF814FBFD
:10FB70003700020002E008C8121F08C1002AFAD1AB
:10FB800070477047002001E001C1121F002AFBD11D
:10FB9000704700000121202803DA81400548014018
:10FBA00003E0402802DA2038814009B10120704783
:10FBB00000207047FC06FFBC082808D238B1012895
:10FBC00005D0042803D0052801D00120704700206B
:10FBD000704700002DE9FF4F8DB00F460546002607
:10FBE00006E025280BD0DDE90F1290476D1C761C2E
:10FBF00028780028F5D111B03046BDE8F08F0024F8
:10FC0000A246A1460122EC4900E0044315F8013F59
:10FC1000203B02FA03F00842F7D128782A2810D0B6
:10FC20006FF02F022878A0F13001092914D80AEBCF
:10FC30008A0102EB410144F0020400EB010A6D1C51
:10FC4000F0E701CF5FEA000A03D544F40054CAF19B
:10FC5000000A44F002046D1C28782E2817D115F8EC
:10FC6000010F44F004042A280ED06FF02F022878E8
:10FC7000A0F1300109290AD809EB890102EB410101
:10FC800000EB01096D1CF2E757F8049B6D1C287806
:10FC90006C280FD006DC4C2817D068280DD06A28B5
:10FCA00014D104E0742810D07A280FD10DE044F468
:10FCB00000140AE044F4801401E044F4401469782C
:10FCC000814202D104F580146D1C6D1C2A786E2AC5
:10FCD0001FD00CDC632A31D004DC002A8BD0582AD8
:10FCE00011D1A3E0642A68D0692A0CD165E0732A97
:10FCF0002ED004DC6F2A73D0702A04D19BE0752AC1
:10FD00006FD0782A6ED01046DDE90F129047761C2E
:10FD100050E1C4F30250022806D0032809D0042879
:10FD200001CF09D0066045E101CFF117C0E90061BC
:10FD300040E101CF06803DE106703BE117F8040B7E
:10FD40008DF8000000208DF80100EB46012003E053
:10FD500057F804BB4FF0FF3061074FF0000102D4A9
:10FD60000DE008F10101884649450FDA8045F8DBCE
:10FD70001BF808100029F4D108E008F101018846B9
:10FD80008142FADB1BF808100029F6D1DDE90F23C8
:10FD9000AAEB08008146214600F036F9304400EB1A
:10FDA000080604E0DDE90F121BF8010B9047B8F1DB
:10FDB0000108F7D221464846F7E00A21C4F302536E
:10FDC0004FF0000B0891022B04D001CFC117032B79
:10FDD00009D00AE0FF1D27F00707F7E8020108E055
:10FDE00032E01FE020E000B2C117042B01D140B285
:10FDF000C117031E71F1000307DA4FF0000CD0EBBE
:10FE00000C006CEB01012D2302E0230504D52B230C
:10FE10008DF82430012303E0E30701D02023F7E726
:10FE2000984658E00A2110E010210EE010204FF013
:10FE3000000B08900CE010214FF0000B44F004047C
:10FE40004FF00809089103E008214FF0000B0891DA
:10FE5000C4F30253022B04D001CF0021032B06D0A0
:10FE600006E0FF1D27F00707F7E8020103E080B274
:10FE7000042B00D1C0B24FF0000823072BD5702A05
:10FE800007D0DDF820C08CF0100C5CEA0B0C05D01C
:10FE90000EE040238DF82430012308E050EA0103EE
:10FEA00006D030238DF824308DF825200223984683
:10FEB000DDF820C08CF0080C5CEA0B0C0BD150EA8A
:10FEC000010301D1630706D530238DF824304FF0AC
:10FED0000108A9F10109582A04D038A20B9208AAF6
:10FEE0000A920BE03AA2F9E75B46089AFFF7BFFADD
:10FEF0000B9B9B5C0A9A521E0A92137050EA0102F5
:10FF0000F2D10A98ADEB000000F1200B600702D59A
:10FF100024F4803401E04FF00109D94502DDA9EB5A
:10FF20000B0000E0002000EB0B0141440890AAEB1D
:10FF3000010AE00306D4DDE90F232146504600F014
:10FF400063F806444FF0000908E009A911F8090018
:10FF5000DDE90F12904709F10109761CC145F4DB78
:10FF6000E0030CD5DDE90F232146504600F04CF8A4
:10FF7000064404E0DDE90F1230209047761C089912
:10FF8000481E08900029F5DC08E00A980A990078D4
:10FF9000491C0A91DDE90F129047761CBBF1000164
:10FFA000ABF1010BF1DC21465046DDE90F2300F0F7
:10FFB00019F806446D1C1BE6092801003031323364
:10FFC0003435363738396162636465660000000095
:10FFD000303132333435363738394142434445467F
:10FFE000000000002DE9F041044600251E4617469A
:10FFF000880404D405E039462020B0476D1C641EF7
:020000040002F8
:10000000F9D52846BDE8F0812DE9F04104460025E8
:100010001E469046C80301D5302700E020278804FB
:1000200004D505E041463846B0476D1C641EF9D53D
:100030002846BDE8F0814A68002A06D00A68531CA9
:100040000B6010704868401E486070471CB50E4831
:100050000D4C90F830002834C000207000206070F3
:10006000A07020460AF0D8FDE0700420ADF804002E
:1000700000220094114668460EF07AFD002802D056
:10008000002000F041F81CBD349E012038B5044624
:1000900000208DF80000684601F00EF81248134960
:1000A000401AC008012101EB004011A10CF09CFC9A
:1000B0000CF044FD0CF07EFB0028FBD10F4884427D
:1000C0000CD0BFF34F8F0E4801680E4A01F4E06177
:1000D00011430160BFF34F8F00BFFDE79DF80000A3
:1000E00001F00EF838BD000004130300AC12030049
:1000F000466174616C206572726F7200FECADDBA6F
:100100000CED00E00400FA050EB500210091CDE9E8
:1001100001106A4644F20100FFF7B8FF0EBD00006F
:100120002DE9F84F2C4C8146924660880E4681425C
:100130004FD800274FF6FF788DF80070684600F022
:10014000BBFF22786078A188884201DA401C00E079
:100150000020C0B2904204D19DF8000000F0D0FF12
:1001600035E065786078884201DA401C00E00020C4
:10017000607020786278824201D3101A02E0081A77
:100180001044401CE18880B2884200D9E0809DF88C
:10019000000000F0B5FF454519D0E068B9F1000F47
:1001A00040F835A00DD066B161882069324605FB64
:1001B00001004946FFF71AF9E06800EBC5008680A8
:1001C00002E000EBC50087800020BDE8F88F042026
:1001D000FBE70920F9E70000B09C012010B50F4CA7
:1001E00003E0401C00E000202070A068002814D12B
:1001F00020786178814210D0227861882069E36894
:1002000002FB010003EBC20153F8322089889047BA
:100210002078A1888842E6DAE3E710BDB09C01208F
:1002200030B5CB0008339DB293074FF0000401D0E6
:10023000072030BD054BDA602A441A615C701C70DF
:1002400058809980DC80002030BD0000B09C0120E7
:1002500008B500208DF80000684600F02DFF054924
:100260008868421C01D0401C88609DF8000000F0A6
:1002700047FF08BDB09C0120074801784078064A36
:100280008842928801D3401A02E0511A0844401C67
:10029000101A80B270470000B09C012008B5002001
:1002A0008DF80000684600F007FF0548816809B135
:1002B000491E81609DF8000000F022FF08BD00008B
:1002C000B09C012070B505460548046905E0294643
:1002D000204607F003FF20680468002CF7D170BDAA
:1002E000D89C012070B5094804690CE0267A0025E5
:1002F00005E02946204600F009FD6D1CEDB2B5422F
:10030000F7D320680468002CF0D170BDD89C012080
:1003100070B50A4804690DE0267A002506E000223F
:100320002946204600F030FD6D1CEDB2B542F6D3F3
:1003300020680468002CEFD170BD0000D89C01201B
:1003400070B50849054606200C6907E02946204695
:1003500007F0C4FE062803D121680C68002CF5D1F3
:1003600070BD0000D89C01207CB504680B46154682
:10037000217F0834C90705D0A16929B1206AA0B33B
:1003800011207CBD08207CBDE16EA9420CD318462B
:10039000A16EFFF72BF8E06E401BE066A06E65676C
:1003A0002844A06600207CBDC4E9063209F027FA83
:1003B000054610480069CDE90004E26E6AB1A16EFD
:1003C000A069FFF713F8E16EE069401AE061A069E7
:1003D0000844A0610020C4E91B016946284600F0DA
:1003E0007BFA0028DFD192207CBDFFE7C4E9083208
:1003F000F9E70000B80603003EB50D460168144653
:10040000097F11F0010F09D009F0F0F900210095E2
:10041000CDE90141694600F085FA3EBD08203EBDA8
:10042000F8B5044600250FE0002705E0007800F04D
:1004300067FA08B11120F8BD3946781CC7B23046BA
:1004400000F09CF80028F1D12946681CC5B220466E
:1004500000F0A6F80600E7D100250DE0002703E034
:100460000078214600F051FA3946781CC7B2304670
:1004700000F084F80028F3D12946681CC5B2204654
:1004800000F08EF80600E9D1074800E0086801682E
:100490000029FBD104600548694640690090606806
:1004A000026820469047F8BDE89C012068060300DA
:1004B0002DE9F04F87B04FF000081D46934689465E
:1004C0000446DDF840A04646CDF80C8000E0761CDE
:1004D0006068012300224768214603A8B847002826
:1004E000F5D140468DF800800027B84601903BE0EA
:1004F000606801236A46D0F804C0214601A8E0479D
:100500006068012305AAD0F804C0214601A8E0478D
:100510009DF8141049451AD1D84514D19DF8000012
:10052000CAF8000005F8010B6A1C85F800906068A5
:100530009DF800302146456801A89B1EA847002071
:1005400007B0BDE8F08F08F1010000F0FF08606817
:100550009DF800300022D0F804C0214601A89B1E5F
:10056000E0479DF800000744B742C1D30520E7E704
:100570000148006970470000D89C012042788A42F7
:1005800001D80020704782781044084470474278B0
:100590008A4201D80020704782781044084470478E
:1005A000027A8A4201D80020704701EB41010930EC
:1005B00008447047027A8A4201D80020704701EB54
:1005C000410109300844704702484078002800D0B3
:1005D00001207047D89C012070B50D46097806248B
:1005E00001260F293DD2DFE801F03C080C0E3C1A31
:1005F0002B3C3C3C3C0C1E20290003200FF086FCC9
:100600002FE000242DE028480AF011FE0028F8D041
:1006100026480660BFF36F8FBFF34F8FF1E700F0FE
:1006200065F804461DE0002005E02148006810F050
:10063000010F03D002200FF069FCE2E70120FAE786
:10064000E87803280DD01849091D0A6832B1002343
:100650000B6049689047040005D000E00E240BF0C1
:10066000C7FC204670BD0FF049FC28B1A8780028CF
:10067000F7D10BF080FCF4E70E480078082810D181
:100680000C48001D007800070BD10A48083000789C
:1006900010F0F00F05D107480C30007810F0F00F83
:1006A000DFD00BF065FCDCE7089D01205C700240A8
:1006B00038040040E00F00F0024A0146D2E900028F
:1006C000104700000CBB012070B50C4605460BF02E
:1006D00049FCA84201D0102070BD0348D4E90012A3
:1006E000C0E90212002070BD049D01207FB50546BF
:1006F00005208DF8000006240DF101000BF050FCE0
:100700000FF0FCFB48B12F482F49401AC0080221C6
:1007100001EB00402DA10CF067F93449002008607E
:100720009DF8010010F01F0006D001280FD002280C
:1007300026D0032833D106E0694628460EF0B0FBE8
:10074000044606282AD16846FFF7FAFD25E09DF801
:10075000050003A900F0F6FA050008D06A469DF8E6
:100760000C1000F0CFFA0446062802D016E0102440
:1007700015E06A469DF80C1028460EF017FD0CE0B7
:100780009DF80500010705D0694600F071F80446A0
:10079000062803D168460EF01FFC044624B10BF076
:1007A00027FC04B0204670BD0FF0A8FB30B10BF061
:1007B000D9FB0028F5D10BF0DEFBF2E70BF0D8FBFC
:1007C000EFE70000F4120300AC12030050726576EC
:1007D000696F7573207365747570206E6F74206611
:1007E000696E697368656421000000000C9D01203A
:1007F0007FB5C08814460E46A04201D2054600E0EF
:100800001546844207D280200BF0C2F9B4FBF0F108
:1008100000FB114080B100200096CDE9015000207E
:100820008DF80C0003A800F047FC6946802000F01A
:1008300079F8040002D006E00120EDE705498020A8
:10084000FFF742FF04469DF80C0000F059FC04B08D
:10085000204670BDE806030008B140210160014850
:100860007047000060BB01200BF028B80BF042B8C5
:1008700010B50C46010600F00F02092A09D200F05B
:100880000BF8006828B141680A682146BDE81040AD
:100890001047102010BD0000010600F00F0001D528
:1008A000034901E00249483101EBC00070470000F4
:1008B000C4BA012010B5044600F00F00082805D284
:1008C00020460BF0D7F820460BF092F92046BDE801
:1008D00010400BF0DDB8000070B50C4605460BF07B
:1008E00019F918B105480078022801D0082070BD18
:1008F00021462846BDE870400BF00EB9D89C012077
:1009000010B5FFF7C9FF006810BD10B50C46FFF722
:10091000C3FF04601CB161680968416010BD00211B
:10092000FBE7000070B50C4605460BF0F3F818B174
:1009300005480078022801D0082070BD21462846CD
:10094000BDE870400BF084B9D89C01202DE9FE432E
:10095000064602782D492E482E4C081A4FF0000802
:10096000C7084AB3DFF8B09001A9D9F81C000AF013
:1009700032FC050042D0306828608DF8008068465F
:1009800000F09AFB6088E168401A401CE880002172
:1009900004F10C000AF062FCA8809DF8000000F051
:1009A000AFFB01A9D9F81C000AF036FC014630461D
:1009B0000FF02CFDBDE8FE838DF8088002A800F042
:1009C0007BFBE06808B970886080124801210C3018
:1009D0000AF033FC9DF8080000F092FB012130463C
:1009E0000FF014FDE0684FF4FA729042E2D1022059
:1009F00000EB074009A10BF0FBFFDBE7012000EB58
:100A000007400DA10BF0F0FFD4E70000E412030053
:100A1000AC120300D89C0120680603005374616384
:100A20006B6564206F76657220256420534F4620E5
:100A30006576656E74732E004576656E74207175EB
:100A40006575652066756C6C2E00000070B50178C8
:100A5000724C0546092970D008DC092977D2DFE8F5
:100A600001F06777AB808AB4BB76D0006B488129F0
:100A7000007817D00DDC0A2971D00F2970D0802999
:100A800065D1052803D006283CD007285FD1022075
:100A90008EE082291BD0832936D0842957D10328A0
:100AA0003AD03FE05E48FFF707FE5D48FFF70AFCDB
:100AB0000D200FF0B9FC606910B95A48007A00B1F6
:100AC00001200BF099FAFFF70DFC012070E0FFF711
:100AD00009FC0BF0BDFA00200EF024FD5048401C2C
:100AE000FFF7F0FB4E48401CFFF7E6FD0E200FF02D
:100AF0009BFC207800F0C6FA002828D0BDE87040A2
:100B00000AF096BD082053E0032820D10BF0BEFA6E
:100B100000281CD004204BE00BF0B8FA10B10420E0
:100B20000EF000FD0BF040FB002810D006203FE047
:100B300000200FF079FC646907E064E007E02946D3
:100B4000204607F0CBFA20684468002CF7D170BD2E
:100B5000FFF7C8FB02200EF0E5FC012005E054E0A1
:100B600038E005200EF0DEFC03200FF05DFC284687
:100B7000FFF7A2FD4CE003200FF056FC2848801C34
:100B8000FFF79AFD2648801CFFF79CFB2278062A77
:100B90000DD0082A3FF47BAF23482449401AC008EF
:100BA000022101EB004022A10BF022FF6FE707209A
:100BB000BDE870400EF0B6BC03200EF0B3FC02207E
:100BC0000FF032FC2846FFF77DFB2846BDE8704059
:100BD000FFF772BD0F2019E0A878FFF75DFED0E99E
:100BE00000232946104698470028B0D0A87801076E
:100BF000ADD000F00F010829A9D2BDE870400AF07D
:100C0000D3BF082002E0092000E00A200FF00CFC0E
:100C10002846BDE87040FFF755BB0000D89C012076
:100C20007906030054BB0120E4120300AC12030058
:100C3000556E65787065637465642073746174655E
:100C4000206F6E205755524551206576656E742091
:100C50002825752900000000FFF778BE2DE9FC412A
:100C6000234C00250095234EA0684FF4006728B957
:100C7000211DF0690AF0C5FAA060C0B1818869B190
:100C8000C188B94200D3C580C188ADF80210C188BF
:100C9000491CC1808188491E818022E0FFF7D6FE71
:100CA0001349F069091D0AF0A1FAA5601CE0E0688B
:100CB00000281AD08DF8045001A800F0FDF96088D2
:100CC000B84200D365806088ADF80200401C6080A7
:100CD000074801210C300AF0D2FA9DF8040000F018
:100CE0000FFA6846FFF7B2FE0120BDE8FC81000064
:100CF000D89C0120680603000148FFF727BE0000CA
:100D000068060300114642681368184770B5044628
:100D100040680D46C2680AB12046904720462946E1
:100D2000FFF73EFC05464678002408E021462846A9
:100D3000FFF724FC00780AF07BFE641CE4B2B442A6
:100D4000F4D370BD2DE9F04180460E480E4605698A
:100D500014E02F7A00240DE021462846FFF720FCFE
:100D60000178414504D106B134702846BDE8F081D0
:100D7000641CE4B2BC42EFD328680568002DE8D1BA
:100D80000020F3E7D89C012070B504464068154662
:100D90000E4683681BB120469847062803D120469B
:100DA00031460DB1072070BDFFF7FAFB05464678C6
:100DB000002408E021462846FFF7E0FB0078FFF713
:100DC00079FD641CE4B2B442F4D3002070BD034644
:100DD00000205A681269002A01D01846104770474F
:100DE0002DE9F8432E4C054608234FF484722B4915
:100DF000E0690AF0DDF910B10320BDE8F883294865
:100E00000BF05CF80028F8D12749087008614861A8
:100E100048212648FEF703FB244848214830FEF7C6
:100E2000FEFA224878307DB195E80E00183080E84F
:100E30000E0000200AF07AFC18B1852801D0FFF7D7
:100E400063F91B4D002611E004F130010EC9EDE7F6
:100E5000002703E000782946FFF757FD3946781C44
:100E6000C7B24046FFF78AFB0028F3D13146701C19
:100E7000C6B22846FFF794FB5FEA0008E8D1606835
:100E800000906946284607F029F9040003D00BF0CA
:100E90007DF92046B1E70020AFE70000BCB9012092
:100EA00068060300590C0200D89C0120C4BA012036
:100EB0002807030030B1012807D0022808D10548CF
:100EC000FFF744BD03480838FAE70248001FF7E778
:100ED000704700009006030010B50BF03BF810B10E
:100EE0000BF02EF808B1082010BD04480AF06DFC84
:100EF00008B1FFF709F9002010BD000094060300B7
:100F000070B50C460F4901EB800555F824000178B7
:100F100031B10020FFF7A0FC002255F8241006E0B4
:100F2000801C70BD521CD2B2491C20F812300B78C4
:100F3000002BF7D1022101EB4201C9B241F440710B
:100F4000018070BD209D012070B54FF0805086B0AB
:100F5000D0F8A810D0F8A40089B241F44043009022
:100F600009A20D2101A8FEF7EDFD01AD0024094EF7
:100F700002E0285D3055641C2846FEF75BFAA0426B
:100F8000F7D806B070BD00002530345825303858E9
:100F900000000000B8BB01202DE9F0410024194DEC
:100FA0001CE0194819490027401AC008022101EB2A
:100FB000004609E00378A34204D03046224614A13B
:100FC0000BF01DFD641CE4B23946781CC7B22868DA
:100FD000FFF7E6FA0028EDD12868056828680028A0
:100FE000DFD118480168C1F3400121B1BDE8F041EB
:100FF0001548FFF7ABBC016811F0010FF2D1BDE855
:10100000F0810000E89C0120E4120300AC12030010
:10101000556E657870656374656420696E74657279
:1010200066616365206E756D6265722C20657870EF
:1010300065637465642025642C20676F74202564C3
:1010400000000000380400406D060300034808B5A6
:10105000806800906846FFF779FC08BD68060300C9
:101060004FF0000118B1052803D30020704700207D
:1010700003E0034A105C0028F8D0FFF741BF0000EE
:1010800081070300092808D2DFE800F007070507F9
:101090000705050505000120704700207047092855
:1010A00008D2DFE800F00707050707070707050074
:1010B000012070470020704730B5EFF3108172B601
:1010C0000D4A9468012324B10370002900D162B64F
:1010D00030BD93604FF0E023D3F88051074C25409A
:1010E0001560C3F88041D3F8844154605A17C3F89F
:1010F000842100220270E8E7C4BB0120FC06FFBC8B
:101100000B498A68002A11D000280FD1EFF3108014
:1011100072B60B684FF0E022C2F800314B68C2F89B
:10112000043100228A60002800D162B670470000B6
:10113000C4BB012070B5054608680C46411C04D0AC
:101140000BF048FA20680BF0F8F96068411C02D0F7
:1011500000210BF0E0F92968A069C1F82405607D41
:10116000227D29681043C1F86C05D4E90012286873
:10117000C0F81425C0F80C15207D012814D1A068F2
:10118000411C02D000210BF0C6F9E068411C04D0DC
:101190000BF020FAE0680BF0D0F9D4E902122868CD
:1011A000C0F80825C0F8101570BD70B50546086870
:1011B0000C46411C04D00BF017FA20680BF0C7F95D
:1011C0006068411C02D000210BF0AEF92968A069CB
:1011D000C1F82405607D217D2A680843C2F86C05AA
:1011E000D4E900122868C0F80C15C0F81425207D39
:1011F000012814D1A068411C02D000210BF094F901
:10120000E068411C04D00BF0EFF9E0680BF09FF9A7
:10121000D4E902122868C0F80825C0F8101570BD7E
:10122000102802D31038C0B2704740F080007047D9
:10123000F8B51646070010D07EB173B11C460D46B6
:101240000EF057FD002807D105480090231D3246B7
:101250002946384606F0C8FFF8BD0E20F8BD00004C
:101260002D140200F8B51646070010D07EB173B1F8
:101270001C460D460EF09EFD002807D10548009043
:10128000631C32462946384609F028F8F8BD0E207E
:10129000F8BD000069140200F8B51D4617460E009F
:1012A0000FD075B168B104460EF091FD002807D14A
:1012B000054800902B463A463146601C09F05EF81E
:1012C000F8BD0E20F8BD00009B14020038B568B1CF
:1012D00062B15BB11C466B460EF06CFD002804D178
:1012E0009DF8001001F00101217038BD0E2038BDBD
:1012F00008B551B14BB140B1007800F001008DF854
:10130000000068460EF063FD08BD0E2008BD000019
:101310002DE9F84316465FEA00082BD056B34BB3CD
:10132000164F1C460D46009708F0D8FF002822D122
:10133000631C324629464046009708F0CFFF00283C
:1013400019D1A31C3246294640460EF033FD002831
:1013500011D1E31C3246294640460EF02BFD0028F1
:1013600009D101B0231D324629464046BDE8F0436D
:101370000EF020BD0E20BDE8F8830000256E0200AF
:101380002DE9F8431D4690460E002AD04DB340B3D8
:10139000154F0446009708F0F1FF002822D12B4694
:1013A00042463146601C009708F0E8FF002819D13A
:1013B0002B4642463146A01C0EF009FD002811D1F3
:1013C0002B4642463146E01C0EF001FD002809D1B3
:1013D00001B02B4642463146201DBDE8F0430EF0D9
:1013E000F6BC0E20BDE8F883636E02002DE9F041E3
:1013F0001646070017D0B6B1ABB11C460D460EF02D
:10140000D9FC002810D1631C3246294638460EF01C
:10141000D1FC002808D1A31C324629463846BDE835
:10142000F0410EF0C7BC0E20BDE8F0812DE9F84375
:1014300016465FEA000812D08EB183B1094F1C46F0
:101440000D46009708F04AFF002806D1E31C3246FB
:1014500029464046009708F041FFBDE8F8830E207A
:10146000FBE70000ED1302002DE9F04115460600F0
:1014700010D07DB173B11F460C465B1C0EF09AFC78
:10148000002808D13B462A4621463046BDE8F041B7
:101490000EF090BC0E20BDE8F0812DE9F0411C4615
:1014A00016460D000FD074B168B10746401C0EF00F
:1014B0008EFC002808D12346324629463846BDE82E
:1014C000F0410EF084BC0E20BDE8F081F8B5144662
:1014D00006000D461ED0ECB100200090631C6A4649
:1014E00030460EF067FC002813D123466A46294691
:1014F00030460EF05FFC00280BD1631D6A4629467A
:1015000030460EF057FC002803D10099A94200D0C4
:101510000920F8BD0E20F8BD17B581B0144669B199
:1015200064B1002000906B4601A822680EF021FCF7
:10153000002801D10099216004B010BD0E20FBE706
:10154000F8B5164607002AD04EB343B315480090AD
:101550001C460D46384608F0C1FE00281ED1124830
:10156000009004F1080332462946384608F0B6FEDA
:10157000002813D10D48009004F11003324629468B
:10158000384608F0ABFE002808D10948009004F165
:10159000140332462946384608F0A0FEF8BD0E2056
:1015A000F8BD000031120200FD24020033440200A5
:1015B000895B02001CB50C4640B12CB100210191A1
:1015C000037801A9602B03D007201CBD0E201CBD91
:1015D00001230193074B009313460A46214606F068
:1015E00003FE0028F3D10198A04201D009201CBDC0
:1015F00000201CBD4115020013460A46014660202A
:101600000CF0EEBE30B4CAB1C3B1B8B10488202C1E
:101610007ED016DC202C36D2DFE804F035393F3C92
:101620004235353535353535353535356663454BD8
:101630004E546C576F515A605DB169480E2030BCF2
:1016400070473A2C65D00ADCA4F130040A2C1AD277
:10165000DFE804F062715659775C68746E65532C4C
:1016600075D008DC3B2C60D0502C79D0512C7AD02E
:10167000522C08D17AE0542C6FD0552C79D0562CAE
:1016800068D0702C78D0062000211960D7E730BCD4
:1016900000F0D7B830BC00F007B930BC00F050B94A
:1016A00030BC00F072B830BC01F084B930BC01F03D
:1016B000B9B930BC01F09EBC30BC01F02BBC30BCD1
:1016C00001F0D0B830BC01F06BBB30BC01F096B873
:1016D00030BC01F0FBB930BC01F0A6BB30BC01F05E
:1016E00021BD30BC01F098BA30BC01F035BA30BC35
:1016F00001F0C6BC30BC01F0DABA30BC01F00ABB64
:1017000030BC03F0D5B830BC03F010BA30BC01E0F7
:1017100038E019E003F03EB930BC03F03BBB30BC0D
:1017200003F0C8BA30BC03F0A5BB30BC03F086BCE4
:1017300030BC03F0D5BC30BC03F00CBC30BC03F0B3
:1017400095B930BC03F02CB830BC03F061BA30BCA2
:1017500004F078BA30BC04F0C3BB30BC04F056BB14
:1017600030BC04F0FDBB30BC04F0D0BA30BC04F097
:1017700077BB30BC04F026BA30BC05F045B930BCAC
:1017800000F0BEBF30BC01F083BB2DE9FC411E461A
:10179000154604002BD055B34EB32088042802D040
:1017A0000720BDE8FC810020009037680420E8464F
:1017B000ADF8040043463A46294601A80EF0A8FABF
:1017C0000028EED143463A462946201D0EF0A0FAE5
:1017D0000028E6D114F1080029463A46434606D0CF
:1017E00000F007F80028DCD100993160D9E70E201D
:1017F000D7E72DE9F0411D4617460E001ED0EDB18A
:10180000E0B104460EF084FA002818D12B463A467F
:101810003146A01C0EF07CFA002810D12B463A4627
:101820003146201D0EF074FA002808D12B463A46A6
:101830003146A01DBDE8F0410EF06ABA0E20BDE8A9
:10184000F0812DE9FC411D461646040007D036B153
:101850002DB12088012804D00720BDE8FC810E208E
:10186000FBE7002000902F680120E846ADF8040057
:1018700043463A46314601A80EF04AFA0028ECD118
:1018800043463A463146201D0EF042FA0028E4D184
:1018900043463A46314604F108000EF098FA002813
:1018A000DBD100992960D8E72DE9FE431D46164695
:1018B000040007D036B12DB12088032804D00720BA
:1018C000BDE8FE830E20FBE700270197D5F80080D6
:1018D00003200DF10409ADF808004B46424631469D
:1018E00002A80EF015FA0028EAD14B4642463146CE
:1018F000201D0EF00DFA0028E2D14B46424631463B
:1019000004F108000EF063FA0028D9D14B46424694
:10191000314604F110000EF0FBF90028D0D10097F9
:101920004B4642463146E06806F08CFC0028C7D1A1
:10193000A08806F03BFD0028C2D101992960BFE7CD
:101940002DE9FC411D461646040007D036B12DB1E5
:101950002088022804D00720BDE8FC810E20FBE788
:10196000002000902F680220E846ADF804004346AE
:101970003A46314601A80EF0CBF90028ECD1434697
:101980003A463146201D0EF0C3F90028E4D1434603
:101990003A46314604F108000EF019FA0028DBD16E
:1019A00000992960D8E77CB50C4640B12CB10023E2
:1019B0000193057801A96D2D03D007207CBD0E2071
:1019C0007CBD0125CDE9003513460A46214606F0C7
:1019D0000BFC0028F4D10198A04201D009207CBD65
:1019E00000207CBD2DE9FF4182B0984614460F00CF
:1019F00028D03CB30020009025686D206E468DF8FD
:101A0000040033462A4601A80EF0E1F9002816D159
:101A100033462A46394602A80EF0ABF900280ED10B
:101A2000029848B95FEA080039462A46334609D089
:101A300000F05AF8002802D100982060002006B07B
:101A4000BDE8F0810E20FAE71CB50C4640B12CB180
:101A500000210191037801A96C2B03D007201CBD44
:101A60000E201CBD01230193074B009313460A4629
:101A7000214606F0B9FB0028F3D10198A04201D01D
:101A800009201CBD00201CBD991A020013460A46FD
:101A900001466C200CF0A4BC2DE9FC411646070061
:101AA00020D0FEB1F3B11C460D4601AB0EF082F919
:101AB000002815D106200090631C3246294638467E
:101AC0000EF092F900280BD19DF80420217862F3E2
:101AD000000121709DF80420520862F34701217033
:101AE000BDE8FC810E20FBE72DE9FC411D461746B1
:101AF0000E0013D095B188B1044600788DF804002B
:101B000001A80EF064F9002806D13B4632460621B2
:101B1000601C00950EF07EF9BDE8FC810E20FBE70D
:101B200038B5D0B1CAB1C3B11C466B460EF042F90C
:101B3000002811D19DF80020217862F30001217066
:101B40009DF80020520862F3410121709DF80020A9
:101B5000920862F38201217038BD0E2038BD2DE954
:101B6000FC410C46DDE90886050023D02CB100209D
:101B70000190287801AF722802D00720BDE8FC81CF
:101B800001200190B3B1AEB1009313463A46284606
:101B900009F035F90028F1D143463A462146284656
:101BA000009609F02CF90028E8D10198A04203D052
:101BB0000920E3E70E20E1E70020DFE713460A46AD
:101BC000014672200CF00CBCF8B51646070037D061
:101BD000AEB3A3B31C460D460EF0ECF800282DD191
:101BE00018480090231D32462946384606F0FCFA74
:101BF000002823D104F108033246294638460EF066
:101C0000D9F800281AD104F10A0332462946384689
:101C10000EF06FF8002811D104F10C03324629466A
:101C200038460EF066F8002808D10748009004F105
:101C30000E0332462946384608F03CFBF8BDFFE764
:101C40000E20FBE7991A0200211B02001CB50C466E
:101C5000E8B12CB100210191037801A9732B01D0C7
:101C600007201CBD012301938AB113687BB15B6817
:101C70006BB1094B009313460A46214606F0B4FAAD
:101C80000028EED10198A04203D009201CBD0E20EF
:101C90001CBD00201CBD0000C91B020013460A46E3
:101CA000014673200CF09CBB13460A460146742083
:101CB0000CF096BB7CB50C46D0B12CB1002301933F
:101CC000057801A9792D01D007207CBD012501955A
:101CD00072B1156865B1009313460A46214606F0B5
:101CE00083FA0028F1D10198A04203D009207CBDDD
:101CF0000E207CBD00207CBD2DE9FF4184B09846BC
:101D000014460F0019D0C4B1002001902568792035
:101D100001AE8DF8080033462A4602A80EF057F8A7
:101D200000280BD133462A46394604A80EF021F884
:101D3000002803D1049870B903E00E2008B0BDE874
:101D4000F0810748009033462A463946404606F05F
:101D500079FA0028F2D1019820600020EEE7000017
:101D600011FD020038B50C46B8B12CB1002100912C
:101D700003786946782B01D0072038BD01230093F2
:101D80005AB113460A4621460DF0B3FF0028F4D19C
:101D90000098A04203D0092038BD0E2038BD002095
:101DA00038BD13460A46014678200CF019BB2DE9D0
:101DB000FE431F46DDF828800C46050022D0F4B112
:101DC00000200290287802AE802818D101200290CD
:101DD000C2B1BFB11346324628460DF08AFF002833
:101DE0000ED13B463246214628460DF0E3FF00283F
:101DF00006D1387840B1012808D0022808D0072041
:101E0000BDE8FE830E20FBE7002202E0062200E090
:101E1000102200920192434632462146284605F0A0
:101E20006AFB0028ECD10298A04201D00920E7E724
:101E30000020E5E713460A46014680200CF0D0BAA0
:101E40002DE9FC411C460D46060025D02DB1002091
:101E50000190307801AF7E2802D00720BDE8FC81D8
:101E600001200190C2B1BCB12068A8B113463A4626
:101E700030460DF03EFF0028F0D10948009023467F
:101E80003A462946304606F0AFF90028E6D10198D7
:101E9000A84203D00920E1E70E20DFE70020DDE7BC
:101EA000C540020013460A4601467E200CF098BA4F
:101EB0002DE9FC411C460D46060025D02DB1002021
:101EC0000190307801AF752802D00720BDE8FC8171
:101ED00001200190C2B1BCB12068A8B113463A46B6
:101EE00030460DF006FF0028F0D109480090234647
:101EF0003A462946304606F077F90028E6D101989F
:101F0000A84203D00920E1E70E20DFE70020DDE74B
:101F1000211F020013460A46014675200CF060BAE4
:101F20002DE9F041164607001FD0F6B1EBB11C4673
:101F30000D460DF0DEFE002818D1A31C32462946BE
:101F400038460DF0D6FE002810D1231D3246294612
:101F500038460DF0CEFE002808D1A31D3246294692
:101F60003846BDE8F0410DF0C4BE0E20BDE8F0815A
:101F70002DE9F0411D4617460E001ED0EDB1E0B12F
:101F800004460DF0C5FE002818D12B463A463146CE
:101F9000A01C0DF0BDFE002810D12B463A4631465C
:101FA000201D0DF0B5FE002808D12B463A463146DB
:101FB000A01DBDE8F0410DF0ABBE0E20BDE8F081E4
:101FC0002DE9FC4198460C46050021D02CB1002695
:101FD0000196287801AF872802D00720BDE8FC8150
:101FE00001200190A2B113463A4628460DF081FE29
:101FF0000028F3D143463A4621462846009606F08B
:10200000F3F80028EAD10198A04203D00920E5E7BF
:102010000E20E3E70020E1E72DE9FF4184B01C46F4
:10202000150088461AD0CCB1002001902668872080
:1020300001AF8DF808003B463246294602A80DF054
:10204000C6FE00280BD13B463246294604A80DF0B7
:1020500090FE002803D1049870B903E00E2008B068
:10206000BDE8F081064800903B463246294640468E
:1020700006F0E8F80028F2D1019820600020EEE791
:10208000D120020038B5A0B19AB193B11C466B467D
:102090000DF090FE00280BD19DF80020217862F30E
:1020A000030121709DF80020120962F307112170CD
:1020B00038BD0E2038BD08B541B13BB130B1007814
:1020C0008DF8000068460DF082FE08BD0E2008BDA8
:1020D000F8B51D4617460E0012D08DB180B10446EA
:1020E00008480090204608F017F9002809D101B0EF
:1020F0002B463A463146601CBDE8F0400DF067BE05
:102100000E20F8BDB720020013460A4601468D2076
:102110000CF066B92DE9FC411D46089C0E460700EF
:1021200037D036B10020019038780DF104088C28A2
:1021300002D00720BDE8FC81012001904AB310685D
:1021400038B335B3286820B31CB3206808B31348EC
:10215000134600904246384606F046F80028E9D17A
:102160000F4800902B4642463146384606F03CF870
:102170000028DFD10B4800902346424631463846BE
:1021800006F032F80028D5D10198B04203D00920DA
:10219000D0E70E20CEE70020CCE70000991A02001D
:1021A000213C0200211F020013460A4601468C20F2
:1021B0000CF016B92DE9FF5F1D460E9F14468846A8
:1021C0005FEA000942D0B8F1000F07D0002602A84C
:1021D000CDE9010699F800006F2803D0072004B06C
:1021E000BDE8F09F012002907CB3206868B30068CE
:1021F00058B355B3286840B3006830B33B464146F6
:102200004846019A0DF0D6FD0028E8D103AB4146BF
:102210004846019A0DF0CEFD0028E0D19DF80C0053
:10222000012815D0266003AB41464846019A0DF0BF
:10223000C1FD0028D3D19DF80C0001281ED02E60CE
:10224000029941452DD00920C9E7FFE70E20C6E7D6
:10225000D4F800A00024DFF850B00BE00AEB8403B0
:10226000CDF800B041464846019A05F0BDFF002870
:10227000B5D1641C3878A042F0D8D4E72D6800248A
:102280000A4E0AE005EB8403009641464846019A4F
:1022900005F0AAFF0028A2D1641C3878A042F1D82A
:1022A000CEE700209BE700008D3102000D320200D6
:1022B00013460A4601466F200CF092B82DE9FC4106
:1022C00090460C46050022D02CB1002601962878B5
:1022D00001AF7D2802D00720BDE8FC8101200190DC
:1022E000ABB10D4800903A46284605F07DFF002826
:1022F000F2D143463A4621462846009605F074FF3F
:102300000028E9D10198A04203D00920E4E70E207B
:10231000E2E70020E0E70000F3FC02002DE9FF43C4
:1023200083B01E000E9C154689461BD0D4B10020F8
:102330000190D4F800807D2001AF8DF808003B4665
:102340004246314602A80DF042FD00280BD13B4623
:102350004246314603A80DF00CFD002803D1039836
:10236000C0B903E00E2007B0BDE8F0830B48009031
:102370003B4642463146284605F064FF0028F2D12C
:1023800045B1009729884346324648460DF042FD44
:102390000028E8D1019820600020E4E711FD020048
:1023A0002DE9FC419846089E0C46050027D02CB12B
:1023B00000200190287801AF7C2802D00720BDE8DA
:1023C000FC8101200190D2B1B8F1000F17D0B6B155
:1023D0000D48134600903A46284605F005FF0028B0
:1023E000EDD143463A4621462846009608F0D7FCF0
:1023F0000028E4D10198A04203D00920DFE70E2095
:10240000DDE70020DBE700008520020013460A46D6
:1024100001467C200BF0E4BF2DE9FE4316465FEA3F
:10242000000836D0A6B39BB35F891B4800901C46BA
:102430000D46404607F03EFF002827D102AB32464A
:10244000294640460DF0B6FC00281FD19DF8080033
:1024500004F1080300F0030060703246294640464C
:102460000DF047FC002811D104F10A033246294639
:1024700040460DF03EFC002808D12089231DCDE9FF
:10248000007032462946404605F035F8BDE8FE8327
:10249000FFE70E20FAE7000085200200F8B51F468E
:1024A0000C46050020D02CB10020009028786E4604
:1024B000762801D00720F8BD01200090A2B19FB17D
:1024C0001346324628460DF014FC0028F3D13B4653
:1024D0003246214628460DF06DFC0028EBD10098CD
:1024E000A04203D00920F8BD0E20F8BD0020F8BDA1
:1024F00013460A46014676200BF072BFF8B5164621
:10250000070020D0FEB1F3B11C460D460DF052FC81
:10251000002817D1631C3246294638460DF04AFC84
:1025200000280FD1A31C3246294638460DF042FC44
:10253000002807D105480090231D32462946384619
:1025400005F052FEF8BD0E20F8BD0000192402006F
:102550002DE9FC411646070020D0FEB1F3B1102052
:1025600000901C460D4638460DF03EFC002813D165
:1025700001AB3246294638460DF01CFC00280BD131
:102580009DF80410227C4B0861F3000263F34102C2
:10259000890861F387022274BDE8FC810E20FBE705
:1025A0002DE9FC411D4617460E001DD0E5B1D8B1FE
:1025B00013460A460446102100950DF02BFC002816
:1025C00010D1207C2B46C0F34002014662F35F012C
:1025D00020F0030001438DF804103A46314601A86B
:1025E0000DF0F5FBBDE8FC810E20FBE7F8B51646C3
:1025F000070014D09EB193B10A4800901C460D46C6
:10260000384607F057FE002808D10748009004F12B
:10261000120332462946384607F04CFEF8BD0E201C
:10262000F8BD00005125020069350200F8B51D46CD
:1026300017460E0013D095B188B1044609480090A2
:10264000204607F069FE002808D1074800902B4675
:102650003A46314604F1120007F05EFEF8BD0E2046
:10266000F8BD0000A1250200973502002DE9FC41CC
:102670001D46089C0E46070033D036B1002001905D
:1026800038780DF10408852802D00720BDE8FC81C8
:10269000012001902AB324B31DB3206808B3286831
:1026A000F8B11346424638460DF023FB0028EDD121
:1026B0000E4800902B4642463146384605F094FDC0
:1026C0000028E3D10A480090234642463146384666
:1026D00005F08AFD0028D9D10198B04203D0092025
:1026E000D4E70E20D2E70020D0E7000069350200D1
:1026F0005125020013460A46014685200BF070BEA4
:102700002DE9FE431D461646040007D036B12DB113
:1027100020881D2804D00720BDE8FE830E20FBE79B
:10272000002001902F681D200DF10408ADF808006D
:1027300043463A46314602A80DF0EAFA0028EBD1AA
:1027400043463A463146201D0DF0E2FA0028E3D117
:102750000648009043463A46314604F1080007F027
:10276000D1FD0028D8D101992960D5E77127020051
:102770002DE9FC471D4691460E003AD0C5B3B8B3CB
:102780000446C07B1C4FC0F34102014662F35F0167
:102790008DF804104FEAD0084A463146204600978B
:1027A00007F0BAFD002821D12B464A463146E01DEC
:1027B000009707F0B1FD002818D12B464A46314654
:1027C00004F10E000DF003FB00280FD12B464A4602
:1027D000314601A80DF0FBFA002807D14B463246DE
:1027E000414604F11000009508F021FBBDE8FC878C
:1027F000FFE70E20FAE70000E91A02002DE9FC418C
:102800001D461646040007D036B12DB12088172882
:1028100004D00720BDE8FC810E20FBE700200090DB
:102820002F681720E846ADF8040043463A46314683
:1028300001A80DF06DFA0028ECD143463A46314626
:10284000201D0DF065FA0028E4D143463A46314692
:1028500004F108000DF0BBFA0028DBD100992960D3
:10286000D8E700002DE9FF411D461646040008D0B8
:102870003EB135B12088192805D0072004B0BDE845
:10288000F0810E20FAE7002001902F6819200DF149
:102890000408ADF8080043463A46314602A80DF058
:1028A00037FA0028EAD143463A463146201D0DF05A
:1028B0002FFA0028E2D11648009043463A463146A6
:1028C00004F1080007F01EFD0028D7D1A08803A955
:1028D00005F016FD18B1002001992960CEE70D48DA
:1028E000009003980C49C0EB001000EB800001EB56
:1028F000800043463A463146001D07F003FD00289C
:10290000BCD1A08805F0DEFC0028E5D0B6E70000C9
:102910001D290200493F020014C401202DE9FC4199
:102920001D4690460E003ED0E5B3D8B3044640782D
:10293000C0F3800161F39F008DF80400314620460A
:102940000DF045FA00282BD12B464246314601A80E
:102950000DF03DFA002823D1144F2B464246314654
:10296000A01C009707F0D8FC002819D12B4642463E
:102970003146E01C009707F0CFFC002810D10C4F27
:102980002B4642463146201D009707F0C5FC002823
:1029900006D12B4642463146601D009707F0BCFC2D
:1029A000BDE8FC81FFE70E20FAE70000853F02004A
:1029B000FB3D02002DE9FE431D461646040007D0EC
:1029C00036B12DB12088122804D00720BDE8FE833F
:1029D0000E20FBE7002001902F6812200DF1040863
:1029E000ADF8080043463A46314602A80DF090F98A
:1029F0000028EBD143463A463146201D0DF088F9B8
:102A00000028E3D10648009043463A46314604F197
:102A1000080007F077FC0028D8D101992960D5E794
:102A2000B12A02002DE9FE431D461646040007D0D8
:102A300036B12DB120881F2804D00720BDE8FE83C1
:102A40000E20FBE7002001902F681F200DF10408E5
:102A5000ADF8080043463A46314602A80DF058F951
:102A60000028EBD143463A463146201D0DF050F97F
:102A70000028E3D10648009043463A46314604F127
:102A8000080007F03FFC0028D8D101992960D5E75C
:102A9000952A020038B531B12BB120B1034C009416
:102AA00007F03AFC38BD0E2038BD0000711F02004F
:102AB00038B531B12BB120B1034C009407F02CFC98
:102AC00038BD0E2038BD0000711F02002DE9FE4305
:102AD0001D461646040007D036B12DB120881A28AD
:102AE00004D00720BDE8FE830E20FBE70020019004
:102AF0002F681A200DF10408ADF8080043463A4645
:102B0000314602A80DF004F90028EBD143463A46BD
:102B10003146201D0DF0FCF80028E3D10648009056
:102B200043463A46314604F1080007F0EBFB002823
:102B3000D8D101992960D5E73D2B020038B531B1D4
:102B40002BB120B1034C009407F0E6FB38BD0E20FA
:102B500038BD0000D12002002DE9FE431D46164677
:102B6000040007D036B12DB12088102804D00720EA
:102B7000BDE8FE830E20FBE7002001902F681020A7
:102B80000DF10408ADF8080043463A46314602A864
:102B90000DF0BEF80028EBD143463A463146201DE1
:102BA0000DF0B6F80028E3D10648009043463A46B7
:102BB000314604F1080007F0A5FB0028D8D101999F
:102BC0002960D5E7C92B0200F8B51D4617460E004F
:102BD0001BD0D5B1C8B104460D480090204607F07F
:102BE0009BFB002810D12B463A463146E01D0DF0E4
:102BF000EEF8002808D1074800902B463A463146A7
:102C000004F1080007F088FBF8BD0E20F8BD0000B5
:102C1000E91A0200711F02002DE9FF411D46164608
:102C2000040008D03EB135B12088112805D0072016
:102C300004B0BDE8F0810E20FAE7002001902F6873
:102C400011200DF10408ADF8080043463A4631461C
:102C500002A80DF05DF80028EAD143463A46314615
:102C6000201D0DF055F80028E2D10C480090434695
:102C70003A46314604F1080007F044FB0028D7D15A
:102C8000A08803A905F03CFB20B9A08805F01AFB39
:102C90000028CDD1019900202960C9E7A12C0200AC
:102CA00019B113B108B10DF092B80E2070472DE99B
:102CB000FC411D461646040007D036B12DB12088D0
:102CC000162804D00720BDE8FC810E20FBE7002079
:102CD00000902F681620E846ADF8040043463A46B7
:102CE000314601A80DF014F80028ECD143463A46CD
:102CF0003146201D0DF00CF80028E4D143463A4639
:102D0000314604F108000DF062F80028DBD100998B
:102D10002960D8E72DE9FF411D461646040008D07A
:102D20003EB135B12088182805D0072004B0BDE891
:102D3000F0810E20FAE7002001902F6818200DF195
:102D40000408ADF8080043463A46314602A80CF0A4
:102D5000DFFF0028EAD1207B434600F001008DF818
:102D60000C003A463146201D0CF0D2FF0028DDD180
:102D70000A48009043463A463146A06805F062FA98
:102D80000028D3D143463A46314603A80DF01FF838
:102D90000028CBD101992960C8E700004F35020017
:102DA0002DE9FF411D46904604000AD0B8F1000FFE
:102DB00007D035B12088152805D0072004B0BDE81C
:102DC000F0810E20FAE7002001902F68152001AE57
:102DD000ADF8080033463A46414602A80CF098FF89
:102DE0000028EBD1A07B334600F001008DF80C00E9
:102DF0003A464146201D0CF08BFF0028DED13B46B1
:102E00004246062104F1080000960DF003F8002860
:102E1000D4D133463A46414603A80CF0D8FF0028E7
:102E2000CCD101992960C9E72DE9FC411D46164620
:102E3000040007D036B12DB120881C2804D007200B
:102E4000BDE8FC810E20FBE7002000902F681C20CD
:102E5000E846ADF8040043463A46314601A80CF076
:102E600057FF0028ECD143463A463146201D0CF06E
:102E70004FFF0028E4D143463A46314604F10800AA
:102E80000CF0A5FF0028DBD100992960D8E70000ED
:102E90002DE9FE431D461646040007D036B12DB17C
:102EA0002088202804D00720BDE8FE830E20FBE701
:102EB000002001902F6820200DF10408ADF80800D3
:102EC00043463A46314602A80CF022FF0028EBD1D7
:102ED00043463A463146201D0CF01AFF0028E3D144
:102EE0000B48009043463A46314604F1090007F08A
:102EF00009FA0028D8D143463A46314604F1080081
:102F00000CF065FF0028CFD101992960CCE70000C3
:102F1000E91A02002DE9FE431D461646040007D0BB
:102F200036B12DB12088142804D00720BDE8FE83D7
:102F30000E20FBE7002001902F6814200DF10408FB
:102F4000ADF8080043463A46314602A80CF0E0FED0
:102F50000028EBD143463A463146201D0CF0D8FEFE
:102F60000028E3D10648009043463A46314604F132
:102F7000080007F0C7F90028D8D101992960D5E7E2
:102F8000852F02002DE9FC411D4617460E002AD070
:102F90004DB340B30446807CC0F34002014662F367
:102FA0005F01C0F3800041EA80008DF804000F4803
:102FB00000903A463146204607F0AEF9002810D17D
:102FC0000B4800902B463A46314604F1080007F0C2
:102FD000A3F9002805D12B463A46314601A80CF04A
:102FE000F6FEBDE8FC810E20FBE70000E91A0200B6
:102FF000973502002DE9FE431D461646040007D012
:1030000036B12DB12088132804D00720BDE8FE83F7
:103010000E20FBE7002001902F6813200DF104081B
:10302000ADF8080043463A46314602A80CF070FE5F
:103030000028EBD143463A463146201D0CF068FE8D
:103040000028E3D10648009043463A46314604F151
:10305000080007F057F90028D8D101992960D5E771
:103060006530020038B531B12BB120B1034C00946A
:1030700007F052F938BD0E2038BD00008141020032
:103080002DE9FE431D461646040007D036B12DB18A
:1030900020881E2804D00720BDE8FE830E20FBE711
:1030A000002001902F681E200DF10408ADF80800E3
:1030B00043463A46314602A80CF02AFE0028EBD1DE
:1030C00043463A463146201D0CF022FE0028E3D14B
:1030D0000648009043463A46314604F1080007F09E
:1030E00011F90028D8D101992960D5E7F130020003
:1030F00038B5A9B1A3B198B10078C0F34005044632
:1031000065F35F04C0F3800544EA8504C0F3C000A2
:1031100044EAC0008DF8000068460CF058FE38BD47
:103120000E2038BD2DE9FC411D461646040007D08F
:1031300036B12DB120881B2804D00720BDE8FC81C2
:103140000E20FBE7002000902F681B20E846ADF81A
:10315000040043463A46314601A80CF0D9FD002848
:10316000ECD143463A463146201D0CF0D1FD0028F3
:10317000E4D143463A46314604F108000CF027FEFC
:103180000028DBD100992960D8E70000F8B5164681
:10319000070014D09EB193B10A4800901C460D461A
:1031A000384607F087F8002808D10748009004F156
:1031B000100332462946384607F07CF8F8BD0E2049
:1031C000F8BD00000D320200991A0200F8B51D4644
:1031D00017460E0013D095B188B1044609480090F7
:1031E000204607F099F8002808D1074800902B46A0
:1031F0003A46314604F1100007F08EF8F8BD0E2073
:10320000F8BD000023320200E91A020038B530B1DF
:103210002AB123B1102400940CF0E6FD38BD0E2035
:1032200038BD08B541B13BB130B1009313460A46F1
:1032300010210CF0EFFD08BD0E2008BDF8B51F46AB
:103240000C46050020D02CB10020009028786E4656
:10325000822801D00720F8BD01200090A2B19FB1C3
:103260001346324628460CF044FD0028F3D13B4675
:103270003246214628460CF09DFD0028EBD10098EF
:10328000A04203D00920F8BD0E20F8BD0020F8BDF3
:1032900013460A46014682200BF0A2B82DE9FC41F4
:1032A0001F460C46050023D02CB100200190287841
:1032B00001AE812802D00720BDE8FC8101200190E9
:1032C000B2B1AFB11346324628460CF012FD0028C9
:1032D000F2D1094800903B4632462146284604F088
:1032E00083FF0028E8D10198A04203D00920E3E73A
:1032F0000E20E1E70020DFE70933020013460A460B
:10330000014681200BF06CB838B530B12AB123B139
:10331000202400940CF068FD38BD0E2038BD00005C
:103320002DE9FC479846DDF828900C46050031D081
:103330002CB100260196287801AF832802D00720FF
:10334000BDE8FC870120019022B35FEA090021D08B
:10335000B8F1000F1ED013463A4628460CF0C9FCBF
:103360000028EDD10D48009043463A4621462846B4
:1033700004F03AFF0028E3D14B463A46214628465E
:10338000009604F031FF0028DAD10198A04203D062
:103390000920D5E70E20D3E70020D1E73935020018
:1033A0002DE9FF4184B01C46150088461AD0CCB1E7
:1033B000002001902668832001AF8DF808003B466D
:1033C0003246294602A80CF002FD00280BD13B46EC
:1033D0003246294604A80CF0CCFC002803D10498FE
:1033E00070B903E00E2008B0BDE8F08106480090F7
:1033F0003B4632462946404604F024FF0028F2D1DD
:10340000019820600020EEE7ED3402002DE9FC4732
:103410009846DDF828900C46050031D02CB10020EC
:103420000190287801AE842802D00720BDE8FC87EF
:103430000120019022B3B8F1000F21D05FEA09000A
:103440001ED01346324628460CF053FC0028EDD11E
:103450000D4F4346324621462846009704F0C4FEED
:103460000028E3D14B46324621462846009704F017
:10347000BBFE0028DAD10198A04203D00920D5E78D
:103480000E20D3E70020D1E79934020013460A4604
:10349000014684200AF0A4BF2DE9F84316465FEAEE
:1034A00000081ED0EEB1E3B10F4800901C460D4657
:1034B000404606F0FFFE002811D11027E31D3246DA
:1034C0002946404600970CF08FFC002807D104F1F4
:1034D000170332462946404600970CF085FCBDE8AC
:1034E000F8830E20FBE70000991A0200F8B51D468C
:1034F00017460E001BD0D5B1C8B104460D48009048
:10350000204606F009FF002810D13B463246102124
:10351000E01D00950CF07EFC002807D13B463246AA
:10352000102104F1170000950CF074FCF8BD0E207A
:10353000F8BD0000E91A020038B530B12AB123B154
:10354000402400940CF050FC38BD0E2038BD08B566
:1035500041B13BB130B1009313460A4640210CF013
:1035600059FC08BD0E2008BDF8B51646070010D05E
:103570007EB173B11C460D460CF0BBFB002807D191
:1035800008200090A31C3246294638460CF02CFC3B
:10359000F8BD0E20F8BDF8B51D4617460E000ED03A
:1035A0006DB160B104460CF0B3FB002806D13B4678
:1035B00032460821A01C00950CF02CFCF8BD0E2012
:1035C000F8BD2DE9F041164607000FD076B16BB17A
:1035D0001C460D460CF08DFB002808D1A31C32467A
:1035E00029463846BDE8F0410CF083BB0E20BDE80B
:1035F000F0812DE9F0411D4617460E000ED06DB149
:1036000060B104460CF084FB002808D12B463A46F2
:103610003146A01CBDE8F0410CF07ABB0E20BDE89D
:10362000F081F8B51646070010D07EB173B11C4684
:103630000D460CF05EFB002807D105200090A31C6E
:103640003246294638460CF0CFFBF8BD0E20F8BDB7
:10365000F8B51D4617460E000ED06DB160B1044698
:103660000CF056FB002806D13B4632460521A01C33
:1036700000950CF0CFFBF8BD0E20F8BD38B568B151
:1036800062B15BB11C466B460CF094FB002804D180
:103690009DF8001001F00101217038BD0E2038BDE9
:1036A00008B551B14BB140B1007800F001008DF880
:1036B000000068460CF08BFB08BD0E2008BD18B159
:1036C00012B10BB10CF076BB0E20704719B113B1DB
:1036D00008B10CF07CBB0E2070470000F8B5164610
:1036E000070018D0BEB1B3B11C460D460CF001FB6B
:1036F00000280FD1A31C3246294638460CF0F9FAAF
:10370000002807D105480090231D32462946384637
:1037100004F06AFDF8BD0E20F8BD0000F3FC0200C5
:10372000F8B51D4617460E0017D0B5B1A8B104462E
:103730000CF0EEFA00280FD12B463A463146A01C79
:103740000CF0E6FA002807D1054800902B463A46CF
:103750003146606804F076FDF8BD0E20F8BD00002B
:1037600011FD02001CB538B132B12BB10624009412
:10377000019403F0C0FE1CBD0E201CBD08B549B16C
:1037800043B138B1009313460A460068062103F09E
:10379000E4FE08BD0E2008BD38B568B162B15BB16A
:1037A0001C466B460CF006FB002804D19DF8001067
:1037B00001F00101217038BD0E2038BD08B551B1AE
:1037C0004BB140B1007800F001008DF80000684670
:1037D0000CF0FDFA08BD0E2008BD7CB50C46E0B12A
:1037E0002CB100230193057801A97B2D01D007207E
:1037F0007CBD0125019582B1156875B1022C0AD3F3
:10380000009313460A46214604F0EEFC0028EFD14F
:103810000198A04203D009207CBD0E207CBD002071
:103820007CBD00002DE9FF4184B0984614460F008E
:1038300019D0C4B10020019025687B2001AE8DF81D
:10384000080033462A4602A80CF0C1FA00280BD122
:1038500033462A46394604A80CF08BFA002803D1D7
:10386000049870B903E00E2008B0BDE8F081074865
:10387000009033462A463946404604F0E3FC0028CF
:10388000F2D1019820600020EEE70000711F0200D5
:103890001CB50C46C8B12CB100210191037801A9D7
:1038A0007A2B01D007201CBD012301936AB1094B7B
:1038B000009313460A46214604F096FC0028F2D1F4
:1038C0000198A04203D009201CBD0E201CBD002081
:1038D0001CBD0000211F020013460A4601467A2043
:1038E0000AF07EBD1CB50C4640B12CB100210191FF
:1038F000037801A9712B03D007201CBD0E201CBD2D
:1039000001230193074B009313460A46214604F016
:103910006BFC0028F3D10198A04201D009201CBD06
:1039200000201CBD953902002DE9FF4184B0984666
:1039300014460F0019D0C4B10020019025687120F1
:1039400001AE8DF8080033462A4602A80CF03FFA73
:1039500000280BD133462A46394604A80CF009FA50
:10396000002803D1049870B903E00E2008B0BDE828
:10397000F0810748009033462A463946404604F015
:1039800061FC0028F2D1019820600020EEE70000E1
:10399000E9390200F8B51646070020D0FEB1F3B1B0
:1039A0001C460D460CF006FA002817D1631C32465F
:1039B000294638460CF0FEF900280FD1A31C3246E8
:1039C000294638460CF095F9002807D105480090A3
:1039D000231D32462946384604F006FCF8BD0E2069
:1039E000F8BD00000D320200F8B51D4617460E0066
:1039F0001FD0F5B1E8B104460CF0E9F9002817D161
:103A00002B463A463146601C0CF0E1F900280FD1F4
:103A10002B463A463146A01C0CF07AF9002807D113
:103A2000054800902B463A463146606804F00AFC8F
:103A3000F8BD0E20F8BD0000233202001CB50C4674
:103A400040B12CB100210191037801A9702B03D062
:103A500007201CBD0E201CBD01230193074B0093C2
:103A600013460A46214604F0BFFB0028F3D1019813
:103A7000A04201D009201CBD00201CBD95390200C8
:103A800013460A46014670200AF0AABC2DE9FC4103
:103A90001C460D46060025D035B100270197307829
:103AA0000DF104088E2802D00720BDE8FC8101201A
:103AB0000190BAB1B4B12068A0B113464246304675
:103AC0000CF017F90028F0D123464246294630462B
:103AD000009704F089FB0028E7D10198A84203D0A1
:103AE0000920E2E70E20E0E70020DEE72DE9FF41B4
:103AF00084B0984614460F0019D0C4B1002001903C
:103B000025688E2001AE8DF8080033462A4602A8AB
:103B10000CF05DF900280BD133462A46394604A83B
:103B20000CF027F9002803D1049870B903E00E20A7
:103B300008B0BDE8F0810748009033462A46394670
:103B4000404604F07FFB0028F2D10198206000205D
:103B5000EEE70000CFFD02002DE9F8431F46DDF837
:103B600020800C4605002CD02CB100200090287835
:103B70006E46882802D00720BDE8F8830120009017
:103B8000FAB1F7B15FEA08001BD013463246284667
:103B90000CF0AFF80028EFD13B46324621462846CC
:103BA0000CF008F90028E7D1434632462146284662
:103BB0000CF000F90028DFD10098A04203D00920C2
:103BC000DAE70E20D8E70020D6E713460A4601467A
:103BD00088200AF005BC38B50C46B8B12CB10021DC
:103BE000009103786946892B01D0072038BD012355
:103BF00000935AB113460A4621460CF07AF8002881
:103C0000F4D10098A04203D0092038BD0E2038BD61
:103C1000002038BD13460A46014689200AF0E0BB61
:103C2000F8B51646070032D086B37BB31C460D4666
:103C30006B460CF0BFF8002827D19DF800102078C3
:103C4000A31C61F3000020709DF800103246490863
:103C500061F3410020709DF80010890861F3820033
:103C60002070294638460CF044F800280DD1231D59
:103C70003246294638460CF03CF8002805D1A31DF1
:103C80003246294638460CF034F8F8BDFFE70E20DE
:103C9000FBE700001CB50C46D8B12CB10021019106
:103CA000037801A98A2B01D007201CBD01230193B1
:103CB0007AB113686BB1094B009313460A4621464B
:103CC00004F092FA0028F0D10198A04203D0092014
:103CD0001CBD0E201CBD00201CBD0000213C0200AC
:103CE00013460A4601468A200AF07ABB13460A4662
:103CF00001468B200AF074BB2DE9FC471E46DDE926
:103D00000A540F465FEA000842D03FB100200190FC
:103D100098F800000DF10409862802D00720BDE8BC
:103D2000FC870120019092B38EB385B37CB33068D9
:103D300068B3286858B3206848B313464A464046DB
:103D40000BF0D7FF0028EAD11348009033464A46CB
:103D50003946404604F048FA0028E0D10F48009068
:103D60002B464A463946404604F03EFA0028D6D152
:103D70000B48009023464A463946404604F034FA40
:103D80000028CCD10198B84204D00920C7E7FFE74A
:103D90000E20C4E70020C2E7512502000D320200C8
:103DA0002142020013460A46014686200AF018BB4B
:103DB00038B500B3FAB1F3B11C466B460BF0FAFF0D
:103DC000002817D19DF80020217862F300012170AE
:103DD0009DF80020520862F3410121709DF80020F7
:103DE000920862F3820121709DF80020D20862F3EC
:103DF000C301217038BD0E2038BD38B5A9B1A3B1BB
:103E000098B10078C0F34005044665F35F04C0F341
:103E1000800544EA8504C0F3C00044EAC0008DF880
:103E2000000068460BF0D3FF38BD0E2038BD0000FF
:103E3000F8B51646070029D046B33BB314480090A6
:103E40001C460D46384604F0CFF900281DD1114814
:103E50000090231D32462946384604F0C5F9002853
:103E600013D10D48009004F1080332462946384624
:103E700004F0BAF9002808D10848009004F10C03B6
:103E800032462946384604F0AFF9F8BD0E20F8BD99
:103E9000ED2502008D310200214202003935020079
:103EA000F8B51D4617460E0026D02DB320B30446A4
:103EB00012480090206804F0C5F900281BD1104872
:103EC00000902B463A463146606804F0BBF9002862
:103ED00011D10C4800902B463A463146A06804F0B8
:103EE000B1F9002807D1084800902B463A463146E0
:103EF000E06804F0A7F9F8BD0E20F8BD2D260200F9
:103F0000CD310200374202004F3502002DE9F8435F
:103F100016465FEA000813D096B18BB1094F1C46D4
:103F20000D46009706F0C6F9002807D104F11003EA
:103F3000324629464046009706F0BCF9BDE8F883B2
:103F40000E20FBE7313E02002DE9F8431D46904666
:103F50000E0012D08DB180B1094F0446009706F0D3
:103F6000DBF9002807D12B464246314604F1100008
:103F7000009706F0D1F9BDE8F8830E20FBE70000BA
:103F8000A13E020038B5A9B1A3B198B10078C0F341
:103F90004005044665F35F04C0F3800544EA8504E8
:103FA000C0F3C00044EAC0008DF8000068460BF082
:103FB0000EFF38BD0E2038BD2DE9FC479846DDE9DF
:103FC0000A540E4607003FD036B1002001903878E1
:103FD0000DF104097F2802D00720BDE8FC870120ED
:103FE000019082B3B8F1000F2ED065B3286850B3AA
:103FF0004CB3206838B313464A4638460BF079FE76
:104000000028EAD143464A46314638460BF0D2FEF4
:104010000028E2D10E4800902B464A4631463846E9
:1040200004F0E2F80028D8D10A48009023464A4616
:104030003146384604F0D8F80028CED10198B04275
:1040400004D00920C9E7FFE70E20C6E70020C4E737
:10405000C54002000D3F02002DE9FF4184B09846A3
:1040600014460F0019D0C4B10020019025687F20AC
:1040700001AE8DF8080033462A4602A80BF0A7FED1
:1040800000280BD133462A46394604A80BF071FEAE
:10409000002803D1049870B903E00E2008B0BDE8F1
:1040A000F0810748009033462A463946404604F0DE
:1040B000C9F80028F2D1019820600020EEE7000046
:1040C000493F02002DE9FC4116465FEA000853D043
:1040D000002E51D0002B4FD01C460D4601AB0BF0EB
:1040E00069FE002846D1631C3246294640460BF043
:1040F00061FE00283ED1A31C3246294640460BF003
:1041000059FE002836D11D4FE31C32462946404651
:10411000009706F0CFF800282CD1231D32462946FF
:104120004046009706F0C6F8002823D19DF80420E9
:10413000217862F3000121709DF80420520862F397
:10414000410121709DF80420920862F382012170E0
:104150009DF80420D20862F3C30121709DF8042069
:10416000120962F3061121709DF80420D20962F34E
:10417000C7112170BDE8FC810E20FBE7B13D0200B4
:104180002DE9FC411D4690460E0045D0F5B3E8B33D
:1041900004460078C0F34002014662F35F01C0F3B9
:1041A000800241EA8201C0F3C00241EAC201C0F3C9
:1041B000021241EA021120F07F0001438DF8041041
:1041C0004246314601A80BF002FE002822D12B46C0
:1041D00042463146601C0BF0FAFD00281AD12B46EE
:1041E00042463146A01C0BF0F2FD002812D10B4FC5
:1041F0002B4642463146E01C009706F08DF8002819
:1042000008D12B4642463146201D00E004E00097CD
:1042100006F082F8BDE8FC810E20FBE7FB3D0200C2
:1042200038B530B12AB123B1102400940BF0DCFD75
:1042300038BD0E2038BD08B541B13BB130B1009357
:1042400013460A4610210BF0E5FD08BD0E2008BDFF
:1042500038B50C46B8B12CB10021009103786946FD
:10426000772B01D0072038BD012300935AB11346A4
:104270000A4621460BF09EFD0028F4D10098A0428A
:1042800003D0092038BD0E2038BD002038BD1346AC
:104290000A46014677200AF0A3B800002DE9FE4F38
:1042A0001446060098460D4629D035B100270197DF
:1042B00030780DF1040A6E2802D00720BDE8FE8F89
:1042C00001200190DCB12068C8B10068B8B1524645
:1042D00030460BF06FFD0028F0D102AB5246294664
:1042E00030460BF067FD0028E8D19DF80800012852
:1042F00007D027600198A84219D00920DEE70E20D8
:10430000DCE727680024DFF82C900BE007EB840340
:10431000524629463046CDF8009003F065FF00284C
:10432000CCD1641C98F80000A042EFD8E2E700204E
:10433000C4E70000991A020013460A4601466E209F
:104340000AF04EB838B5A0B19AB193B11C466B468D
:104350000BF030FD00280BD19DF80020217862F38E
:10436000000121709DF80020520862F34101217084
:1043700038BD0E2038BD38B590B38AB383B31C4620
:104380006B460BF017FD002829D19DF800202178FD
:1043900062F3000121709DF80020520862F3410190
:1043A00021709DF80020920862F3820121709DF82F
:1043B0000020D20862F3C30121709DF80020120989
:1043C00062F3041121709DF80020520962F3451137
:1043D00021709DF80020920962F38611217038BD8A
:1043E000FFE70E20FBE738B509B303B3F8B1007857
:1043F000C0F34005044665F35F04C0F3800544EA5A
:104400008504C0F3C00544EAC504C0F3001544EABE
:104410000514C0F3401544EA4514C0F3801044EA83
:1044200080108DF8000068460BF0D1FC38BD0E20DE
:1044300038BD18B112B10BB10BF05BBC0E20704748
:10444000F8B51D4617460E000FD075B168B1044689
:104450000BF05EFC002807D1054800902B463A4639
:104460003146A01C05F06CFFF8BD0E20F8BD000021
:1044700007700200F8B51D4617460E000FD075B143
:1044800068B104460BF044FC002807D105480090B1
:104490002B463A463146A01C05F052FFF8BD0E20CF
:1044A000F8BD0000217202002DE9FC411C460D46BA
:1044B000060025D02DB100200190307801AF98285A
:1044C00002D00720BDE8FC8101200190C2B1BCB13F
:1044D0002068A8B113463A4630460BF00AFC002883
:1044E000F0D10948009023463A462946304603F069
:1044F0007BFE0028E6D10198A84203D00920E1E71D
:104500000E20DFE70020DDE72F52020013460A46A7
:104510000146982009F064BF2DE9FC411D4617466D
:104520000E0032D085B378B3044619480090204677
:1045300005F006FF002825D1164800902B463A4684
:104540003146201D05F0FCFE00281BD160792B466A
:1045500000F001008DF804003A46314601A80BF046
:1045600036FC00280ED12B463A463146A01D0BF0F2
:10457000CFFB002806D12B463A46314604F108000D
:104580000BF0C6FBBDE8FC81FFE70E20FAE7000058
:1045900021720200E74302002DE9FC411D46089C00
:1045A0000E46070033D036B10020019038780DF167
:1045B0000408992802D00720BDE8FC810120019061
:1045C0002AB325B3286810B30CB32068F8B113469A
:1045D000424638460BF08DFB0028EDD10E48009086
:1045E0002B4642463146384603F0FEFD0028E3D113
:1045F0000A480090234642463146384603F0F4FD0F
:104600000028D9D10198B04203D00920D4E70E2068
:10461000D2E70020D0E70000F17102002F52020023
:1046200013460A460146992009F0DABE2DE9FC41FD
:104630001C46089F0D46060026D035B1002001908B
:1046400030780DF104089B2802D00720BDE8FC81DA
:1046500001200190C2B1BCB12068A8B1A7B1134636
:10466000424630460BF045FB0028EFD12346424638
:1046700029463046009705F057F80028E6D1019802
:10468000A84203D00920E1E70E20DFE70020DDE7A4
:1046900013460A4601469B2009F0A2BE2DE9FC41C3
:1046A0001F460C46050009D02CB100200190287847
:1046B00001AE962804D00720BDE8FC810E20FBE760
:1046C000012013460190324628460BF012FB0028C9
:1046D000F2D1084800903B4632462146284603F076
:1046E00083FD0028E8D10198A04201D00920E3E72A
:1046F0000020E1E72F52020013460A4601469620A9
:1047000009F06EBEF8B51D4617460E000FD075B104
:1047100068B104460BF0FCFA002807D10548009068
:104720002B463A463146A01C05F00AFEF8BD0E2085
:10473000F8BD0000217202002DE9FC411F460C4625
:10474000050009D02CB100200190287801AE9728EF
:1047500004D00720BDE8FC810E20FBE701201346B2
:104760000190324628460BF0C4FA0028F2D10848DE
:1047700000903B4632462146284603F035FD00288E
:10478000E8D10198A04201D00920E3E70020E1E749
:104790002F52020013460A460146972009F020BE18
:1047A0002DE9FE431D461646040007D036B12DB153
:1047B0002088342804D00720BDE8FE830E20FBE7C4
:1047C000002001902F6834200DF10408ADF8080096
:1047D00043463A46314602A80BF09AFA0028EBD13C
:1047E00043463A463146201D0BF092FA0028E3D1A9
:1047F00043463A463146A01D0BF08AFA0028DBD129
:1048000043463A46314604F108000BF081FA00288D
:10481000D2D10748009043463A46314604F10A0097
:1048200005F084FD0028C7D101992960C4E7000084
:10483000354802002DE9F8431F4691465FEA01081A
:1048400014D09FB190B104460BF062FA00280ED14B
:104850003B464A464146A01C0BF0B9FA002806D157
:10486000A178012905D0104E002515E00E20BDE8E5
:10487000F8830E4EF8E7A078012811D005EBC500AB
:1048800004EB4000001D3B464A464146009605F0B9
:1048900057FD0028EBD16D1C2188A942EBD8E6E733
:1048A00005EB4500ECE700004144020075440200BE
:1048B0002DE9FE431D461646040007D036B12DB142
:1048C0002088322804D00720BDE8FE830E20FBE7B5
:1048D000002001902F6832200DF10408ADF8080087
:1048E00043463A46314602A80BF012FA0028EBD1B3
:1048F00043463A463146201D0BF00AFA0028E3D120
:1049000043463A463146A01D0BF002FA0028DBD19F
:1049100043463A46314604F108000BF0F9F9002805
:10492000D2D10748009043463A46314604F10A0086
:1049300005F0FCFC0028C7D101992960C4E70000FC
:10494000454902002DE9F8431E4691465FEA0108F9
:1049500009D046B138B104460BF0DAF9002803D18A
:1049600000250B4F10E00E20BDE8F88305EB850015
:1049700004EB400033464A464146801C009705F050
:10498000DFFC0028F0D16D1C2188A942EED8EBE7AE
:10499000194502002DE9FE431D461646040007D0C6
:1049A00036B12DB12088352804D00720BDE8FE831C
:1049B0000E20FBE7002001902F6835200DF1040840
:1049C000ADF8080043463A46314602A80BF0A0F97C
:1049D0000028EBD143463A463146201D0BF098F9AA
:1049E0000028E3D143463A463146A01D0BF090F92A
:1049F0000028DBD143463A46314604F108000BF06B
:104A000087F90028D2D10748009043463A463146FC
:104A100004F10A0005F08AFC0028C7D10199296039
:104A2000C4E70000294A0200F8B51D4617460E00EB
:104A30001AD0CDB1C0B104460BF06AF9002812D1EA
:104A40002B463A463146A01C0BF062F900280AD1E9
:104A500060882188801C484381B23B463246201D35
:104A600000950BF0D7F9F8BD0E20F8BD2DE9FE43F7
:104A70001D461646040007D036B12DB120883728D0
:104A800004D00720BDE8FE830E20FBE70020019044
:104A90002F6837200DF10408ADF8080043463A4668
:104AA000314602A80BF034F90028EBD143463A46D0
:104AB0003146201D0BF02CF90028E3D143463A463D
:104AC0003146A01D0BF024F90028DBD143463A46BD
